S01900004763634170706C69636174696F6E3131302E73726563F8
S11300000C942A000C9447000C9447000C9447006D
S11300100C9447000C9447000C9447000C94440142
S11300200C9447000C9447000C9447000C94470030
S11300300C9447000C9447000C9447000C94470020
S11300400C9447000C9447000C9447000C94470010
S11300500C94470011241FBECFE5D8E0DEBFCDBF0E
S113006011E0A0E6B0E0EEEBF5E002C005900D92E1
S1130070A232B107D9F721E0A2E2B1E001C01D929A
S1130080AB32B207E1F70E94B8020C94DD020C9483
S1130090000084EA86BF06B607FEFDCF089583B943
S11300A084E886BF06B607FEFDCF0895CF93DF939D
S11300B0C82FD62F0E9449008D2F0E944F008C2FED
S11300C00E944F0084E986BFDF91CF910895CF93BA
S11300D0C82F90912A01892F846080932A016EE4AD
S11300E00E94560085E88A95F1F70000C295C07F0A
S11300F080912A016EE48C2B0E94560080912A0183
S11301008B7F80932A016EE40E94560085E88A95CD
S1130110F1F70000CF9108951F93CF93DF93182F29
S1130120C82FD0E0D595C795D595C795D595C795D2
S1130130D595C795611109C080912A018E7F80935E
S11301402A016EE40E94560008C080912A01816051
S113015080932A016EE40E9456008C2F0E9467004F
S1130160812F0E946700DF91CF911F910895CF9353
S1130170C82F80912A01816080932A016EE40E9435
S113018056008C2F82958F700E9467008C2F0E94DE
S11301906700CF9108958FE295E70197F1F700C0CA
S11301A0000083E00E9467008FE39FE10197F1F76D
S11301B000C0000083E00E94670087EC90E0019794
S11301C0F1F700C0000083E00E9467008FEC97E025
S11301D00197F1F700C0000082E00E9467008FECF5
S11301E097E00197F1F700C0000060E088E20E9408
S11301F08C008FEC97E00197F1F700C0000060E0FD
S11302008CE00E948C008FEC97E00197F1F700C01E
S1130210000060E086E00E948C008FEC97E001977C
S1130220F1F700C0000080912A01886080932A01C0
S11302306EE40E94560080912A018D7F80932A01EA
S11302406EE40E945600089560E081E00E948C00F4
S113025087EB9BE00197F1F700C0000008951F931E
S1130260CF93DF93EC018881882351F010E00E9442
S1130270B7001F5FFE01E10FF11D80818111F7CFEF
S1130280DF91CF911F9108951F920F920FB60F9295
S113029011242F933F934F935F936F937F938F9387
S11302A09F93AF93BF93EF93FF9389B3837090E0D1
S11302B090932901809328012091260130912701F0
S11302C08217930709F483C02130310509F445C02E
S11302D01CF4232B29F177C02230310529F0233077
S11302E0310509F455C06FC08330910559F420914C
S11302F02401309125012F5F3F4F30932501209336
S1130300240161C0009709F05EC020912201309160
S113031023012F5F3F4F309323012093220153C0C9
S11303208230910559F420912401309125012F5FE9
S11303303F4F309325012093240145C0813091051E
S113034009F041C020912201309123012F5F3F4FDA
S1130350309323012093220136C0009759F4209151
S11303602401309125012F5F3F4F309325012093C5
S1130370240129C08330910531F520912201309167
S113038023012F5F3F4F30932301209322011BC091
S11303908130910559F420912401309125012F5F7A
S11303A03F4F30932501209324010DC082309105E5
S11303B051F420912201309123012F5F3F4F30935C
S11303C02301209322019093270180932601809199
S11303D024019091250104970CF459C00E94240132
S11303E080912001909121019C012F5F3F4F309318
S11303F0210120932001880F991F82959295907F67
S11304009827807F9827805A9F4F0E942F018091C0
S1130410200190912101079731F486E090E09093B8
S113042021018093200160E080EC0E948C002FEF7A
S113043080E792E0215080409040E1F700C0000046
S113044080912001909121019C012F5F3F4F3093B7
S1130450210120932001880F991F82959295907F06
S11304609827807F9827805A9F4F0E942F01809160
S1130470200190912101079731F486E090E0909358
S11304802101809320011092250110922401809172
S113049022019091230104970CF459C00E94240175
S11304A080912001909121019C01215031093093C8
S11304B0210120932001880F991F82959295907FA6
S11304C09827807F9827805A9F4F0E942F01809100
S11304D0200190912101892B31F481E090E09093E7
S11304E021018093200160E080EC0E948C002FEFBA
S11304F080E792E0215080409040E1F700C0000086
S113050080912001909121019C0121503109309367
S1130510210120932001880F991F82959295907F45
S11305209827807F9827805A9F4F0E942F0180919F
S1130530200190912101892B31F481E090E0909386
S11305402101809320011092230110922201FF9136
S1130550EF91BF91AF919F918F917F916F915F9137
S11305604F913F912F910F900FBE0F901F901895B0
S1130570CFEFC0B90E94CB0083E08BBB1ABA18BA84
S1130580C7BB1FBC9AE09EBD1DBC1CBC17BC16BCDF
S11305908BBD88EE8ABD19BC18BC80E189BF7894F4
S11305A080E690E00E942F0160E080EC0E948C00C5
S11105B080E890E00E942F01FFCFF894FFCF67
S11305BE556E697420310000000000000000000038
S11305CE0000000000000000000000000000000019
S11305DE556E697420320000000000000000000017
S11305EE00000000000000000000000000000000F9
S11305FE556E6974203300000000000000000000F6
S113060E00000000000000000000000000000000D8
S113061E556E6974203400000000000000000000D4
S113062E00000000000000000000000000000000B8
S113063E556E6974203500000000000000000000B3
S113064E0000000000000000000000000000000098
S113065E556E697420360000000000000000000092
S113066E0000000000000000000000000000000078
S105067E010075
S9030000FC
